:030000000219E200
:0C19E200787FE4F6D8FD758107021A2911
:071AF4004400BF00000000E8
:101E4400121F217FCC121ED27F4E121ED27F20126F
:0F1E54001ED2E4FF121ED27F7F121ED2021F2168
:0C1F2100C2937FF0DFFED2937FF0DFFE62
:011F2D002291
:101ED2007E08C2937D02DDFEEF1392937D1EDDFE2E
:081EE200D293EFC313FFDEEA07
:011EEA0022D5
:101E22007E08EFC313FFC2937D02DDFED2937D04D1
:101E3200DDFE309304EF4480FF7D1EDDFED293DE93
:011E4200E1BE
:011E4300227C
:1013C00090005C12138F00000000121F217FCC12CE
:1013D0001ED27F44121ED2121F217FCC121ED27F3A
:1013E000BE121ED2E4FC121E2274562CF582E43486
:1013F00000F583EFF00CECB402EC121F21900057C3
:10140000E054F064F0701D900056E0FF700BEFF4B4
:1014100004F0A3E0F404F0800B900056E0F404F034
:10142000A3E0F4F0900057E0C454F0FD900056E0C3
:10143000FFC4540F4D75F06484AEF0EE75F00A846D
:10144000900058F0EE75F00A84A3E5F0F0EF540F29
:10145000900056F0FF7E007C027D711212D8AB071F
:10146000AA060C7DE81212EA90005AEFF0AE02AF25
:10147000037C037DE81212EA7E007F64CFCDCFCEDD
:10148000CCCE1212EAA3EFF0900058E0FCE4121167
:101490002DE4FBFA79207841120EF3C004C005C098
:1014A00006C007900059E0FCE412112DD003D002D1
:1014B000D001D000120E02C004C005C006C00790C3
:1014C000005AE0FCE412112D7BCD7ACC79CC783D2A
:1014D000120EF3D003D002D001D000120E02C004CD
:1014E000C005C006C00790005BE0FCE412112D7B34
:1014F0000A7AD77923783C120EF3D003D002D001B8
:10150000D000120E0290005C121383E4FFFE7DAA4D
:101510007C4290005CE0F8A3E0F9A3E0FAA3E0FBD2
:101520001210997005FFFEFDFC22E4FFFEFDFC9009
:1015300000BFE0F8A3E0F9A3E0FAA3E0FB121099E2
:10154000701490005CE0FCA3E0FDA3E0FEA3E0FFCC
:101550009000BF1213839000BFE0F8A3E0F9A3E06E
:10156000FAA3E0FB90005CE0FCA3E0FDA3E0FEA397
:10157000E0FF120DFE121161121F2EC3EF9401EE57
:1015800064809480506B90008674D1F0A374B8F09E
:10159000E4A3F0A3F0900058E024A3F582E4340023
:1015A000F583E090008AF0900059E02499F582E4F8
:1015B0003400F583E090008BF090005AE024A3F50E
:1015C00082E43400F583E090008CF090005BE0242E
:1015D000A3F582E43400F583E090008DF090005C88
:1015E000E0FCA3E0FDA3E0FEA3E0FF9000BF121328
:0F15F000839000BFE0FCA3E0FDA3E0FEA3E0FFBB
:0115FF0022C9
:051F4A00D290D29122AB
:101E8100D2907F057E00121EEBD2917F057E00125B
:0B1E91001EEBC2907F057E00021EEBDE
:101E9C00C2907F057E00121EEBD2917F057E001250
:0B1EAC001EEBD2907F057E00021EEBB3
:101DFF00D2917F057E00121EEB30900E900058E0BE
:101E0F00C394C85005E004F080EFC2917F057E00B7
:031E1F00021EEBB5
:101EB700D2907F057E00121EEBD2917F057E001225
:0B1EC7001EEBC2917F057E00021EEBA7
:051BE100900058EFF038
:101BE600C291E4A3F0900058E0FF30E704D2908061
:101BF60002C290EF25E0900058F07F057E00121E8D
:101C0600EBD2917F057E00121EEBC2917F057E000E
:101C1600121EEB900059E004F0E0C3940840C6D2CF
:081C2600907F057E00021EEB19
:101C7800C2917F057E00121EEBD2907F057E001276
:101C88001EEBE4900058F0D2917F057E00121EEB07
:101C9800900059E025E0F0309003E004F0C2917F15
:101CA800057E00121EEB900058E004F0E0C3940893
:071CB80040D5900059E0FF48
:011CBF002202
:101DA700900056EFF0A3EDF0121F4A121E817FA09C
:101DB700121BE1121DFF900057E0FF121BE1121DDD
:0F1DC700FF900056E0FF121BE1121DFF021E9C51
:051CC000900056EFF05A
:101CC500121F4A121E817FA0121BE1121DFF9000F8
:101CD50056E0FF121BE1121DFF121E817FA1121B90
:101CE500E1121DFF121C78900057EFF0121EB7127B
:071CF5001E9C900057E0FF68
:011CFC0022C5
:101A6E007F967E00121EEBE4FD7F14121DA77F965B
:101A7E007E00121EEB7D017F28121DA77F967E0031
:101A8E00121EEB7D027F3C121DA77F967E00121E5A
:101A9E00EB7D037F50121DA77F967E00121EEB7DFD
:101AAE00047F64121DA77F967E00121EEB7D0A7FB7
:101ABE0017121DA77F967E00121EEB7D0B7F201244
:101ACE001DA77F967E00121EEB9000BBE0FCA3E0EC
:101ADE00FDA3E0FEA3E0FF1211617D0C121DA77F96
:061AEE00967E00021EEBD3
:101AFB004A00A3FC44795DC59DBD54FDDD4A0099A8
:0A1B0B00FE467B5FC79FBF56FFDF59
:07000300E4FF0FEFB430FB36
:01000A0022D3
:071F3A00E4FF0FEFB408FB08
:011F4100227D
:101E6300D3EF9400EE940040147D6E7C00ED1D7062
:0D1E7300011CED4C70F7EF1F70E61E80E3C0
:011E8000223F
:101EEB00E4FDFCC3ED9FEC9E5008000DBD00010C02
:021EFB0080F174
:011EFD0022C2
:0C1B15004200B900004400BB41E00000A9
:051F4F007FA4021CFD4F
:051CFD00900058EFF01B
:101D0200C294120003E4900059F0900058E030E7CA
:101D120004D2978002C297D295121F3AC295121F1F
:101D22003A900058E025E0F0A3E004F0E0C3940804
:041D320040D8C2973C
:011D3600228A
:101D7100D297120003E4900056F0D295121F3A90C8
:101D81000057E025E0F0309704E04401F0C29512DD
:101D91001F3A900056E004F0E0C3940840DCC2977B
:051DA100900057E0FF77
:011DA600221A
:081F42007F15121CFD021D7148
:101DD600E4900056F0900056E0FE2490FF74862EA4
:101DE600F582E43400F583E0FD121F11900056E001
:081DF60004F0E0C3940840DD95
:011DFE0022C2
:101F1100900057EDF0121CFD900057E0FF021CFDF0
:101B7900900096E024C8605014604424FE60250457
:101B89007055900093E004F07006900092E004F024
:101B9900900092E0FEA3E0FF7C007D0512133F90C8
:101BA90000928015900093E02404FF900092E034A5
:101BB90000FE7C007D0512133FECF0A3EDF02290AE
:101BC900007AE4F0A304F02290007AE4F0A374020E
:081BD900F090009674FFF02269
:10191300900056EEF0A3EFF0900096E024C8700319
:101923000219A314604824FE60280460030219D935
:10193300900057E004F07006900056E004F0900029
:1019430056E0FEA3E0FF7C007D0512133F90005696
:101953008015900057E02404FF900056E03400FE09
:101963007C007D0512133FECF0A3EDF0806890003E
:1019730056E0FEA3E0FFF47002EEF4602090007BDB
:10198300E024FFF090007AE034FFF090009674FFBB
:10199300F0900078EEF0A3EFF074FF8033E4803032
:1019A300900056E0FEA3E0FFF47002EEF460209096
:1019B300007BE004F0700690007AE004F09000965B
:1019C30074FFF0900078EEF0A3EFF074FF8001E471
:0F19D300900056F0A3F0900056E0FEA3E0FF2234
:1017B500900056EEF0A3EFF0900096E024C8700379
:1017C50002189A14700302186824FE604C04600322
:1017D50002190A900057E004F07006900056E004E4
:1017E500F090007AE0FAA3E0FB64034A700E9000E3
:1017F50056E0FEA3E0FF7C007D028015EB64024A03
:10180500600302190A900056E0FEA3E0FF7C007D0C
:101815000312133F900056804290007AE0FAA3E04D
:10182500FB64034A7017900057E02401FF900056AF
:10183500E03400FE7C007D0212133F801EEB640243
:101845004A600302190A900057E02401FF900056F0
:10185500E03400FE7C007D0312133FECF0A3EDF0B5
:1018650002190A900056E0FEA3E0FFF47002EEF4C0
:10187500602090007BE024FFF090007AE034FFF0D8
:1018850090009674FFF0900097EEF0A3EFF074FFD0
:10189500806DE4806A900056E0FEA3E0FFF47002DC
:1018A500EEF4605A90007AE07004A3E064027027B9
:1018B500EF4E70089000B9F0A3F0801B900056E041
:1018C5007004A3E064019000B97006F0A304F080F1
:1018D50006E4F0A37402F090007BE004F07006903B
:1018E500007AE004F090009674FFF0900056E0FF57
:1018F500A3E0900097CFF0A3EFF074FF8001E49090
:0E1905000056F0A3F0900056E0FEA3E0FF2293
:101C2E00A9F1010044000000212C250179000000DB
:101C3E00B82D25015D000000F1F50100C500000082
:101C4E00F1446D019D000000000000002101000024
:101C5E00FE467B5FC79FBF56FFDFFC44795DC59D87
:0A1C6E00BD54FDDD0000000101017E
:101B2100420092000042007A00014200940000420B
:101B3100007800004200970000410096FF480086AF
:101B4100A9F101004400000044008E4080000044DF
:101B510000803E4CCCCD44007C000000004200845B
:021B6100003250
:10000E0078007C007D017BFF7A1C792E7E007F08B4
:10001E001212B278087C007D017BFF7A1C79367E45
:10002E00007F081212B278107C007D017BFF7A1CD3
:10003E00793E7E007F081212B278187C007D017B1B
:10004E00FF7A1C79467E007F081212B278207C005F
:10005E007D017BFF7A1C794E7E007F081212B278EA
:10006E00287C007D017BFF7A1C79567E007F08126A
:10007E0012B278307C007D017BFF7A1C795E7E00A7
:10008E007F0A1212B2783A7C007D017BFF7A1C79CE
:10009E00687E007F0A1212B278447C007D017BFFDD
:1000AE007A1C79727E007F031212B278477C007D33
:1000BE00017BFF7A1C79757E007F031212B29000CD
:1000CE004A7401F074FF90004EF0A3F0A3F0A3F079
:1000DE00121F4F121F4A121E44C292121A6E121D86
:1000EE00D6121F4290004CEFF090007AE07004A3FD
:1000FE00E064027012900092E07002A3E07008C2F9
:10010E00AF1213C00203BF90007AE07004A3E06444
:10011E0002600302028A900092E07004A3E064027F
:10012E00600302028AD2AFD2921213C09000BF12A5
:10013E001383900052E0FCA3E0FDE412112890001E
:10014E00BFE0F8A3E0F9A3E0FAA3E0FB1210996078
:10015E0002500302024A900054E0FCA3E0FDE412B8
:10016E0011289000BFE0F8A3E0F9A3E0FAA3E0FBAA
:10017E00121099400302024A900052E0FCA3E0FDE7
:10018E00E4121128A804A905AA06AB079000BFE047
:10019E00FCA3E0FDA3E0FEA3E0FF120DFEC004C031
:1001AE0005C006C007900052E0FEA3E0FFC390001A
:1001BE0055E09FFD900054E09EFCE4121128A80427
:1001CE00A905AA06AB07D007D006D005D004120F9A
:1001DE00FCE4FBFA79487842120EF3E4FBFA794814
:1001EE007842120E02121161AB07AA06E490008744
:1001FE00F0FC7D641212EA7E007F0ACFCDCFCECC0A
:10020E00CE1212EA743A2FF58274003EF583E09016
:10021E000088F0AE02AF037C007D641212EA7E000D
:10022E007F0ACFCDCFCECCCE1212EA743A2DF58204
:10023E0074003CF583E0900089F08038900054E023
:10024E00FCA3E0FDE41211289000BFE0F8A3E0F952
:10025E00A3E0FAA3E0FB121099400E9000877444BD
:10026E00F0A374FCF0A3F0800BE4900087F0A3F0F1
:10027E00A374FCF0E4900086F00203BF90007AE0D5
:10028E007004A3E064026003020386900092E070A3
:10029E0004A3E064046003020386D2AF1213C0C04D
:1002AE0004C005C006C0077F0C121CC0AC07E412C8
:1002BE00112D90005C121383D007D006D005D00408
:1002CE0090005812138390008EE0FCA3E0FDA3E093
:1002DE00FEA3E0FF900060121383900080E0FCA369
:1002EE00E0FDA3E0FEA3E0FF9000641213839000F4
:1002FE007CE0FCA3E0FDA3E0FEA3E0FF900068120B
:10030E001383900084E0FEA3E0FF12160090008499
:10031E00EEF0A3EFF0E4A3F0A3F0900084E0FEA3D0
:10032E00E0FF7C007D641212EAAA04AB057D0A7C14
:10033E0000AF03AE021212EA743A2FF58274003E39
:10034E00F583E0900088F07D0A7C00AF03AE0212C8
:10035E0012EA743A2DF58274003CF583E090008920
:10036E00F0900084E0FEA3E0FFC3900095E09F9024
:10037E000094E09E5036802D90007AE07004A3E049
:10038E006403702D900092E07004A3E0640170216C
:10039E00D2AF90004BE0FFC3900095E09F90009489
:1003AE00E094005007D292E4F5A08005C29275A0A9
:1003BE000290004CE0FFB4FF030207BB900096E0F2
:1003CE00F460030200ECEFF090007AE07004A3E01A
:1003DE006401600302050A121B79900092E0FEA3ED
:1003EE00E0FFEE60030200ECEF1460481460771437
:1003FE0070030204A61470030204D82404600302DE
:10040E0000ECE490004DF090004DE0C394084003E2
:10041E000200ECE0FF2400F582E43400F583E0FEF8
:10042E0074862FF582E43400F583EEF090004DE0F3
:10043E0004F080D3E490004DF090004DE0C394089A
:10044E0040030200ECE0FF2408F582E43400F5835B
:10045E00E0FE74862FF582E43400F583EEF0900012
:10046E004DE004F080D3E490004DF090004DE0C3D9
:10047E00940840030200ECE0FF2410F582E43400FF
:10048E00F583E0FE74862FF582E43400F583EEF0FA
:10049E0090004DE004F080D3E490004DF090004DBC
:1004AE00E0C3940840030200ECE0FF2418F582E458
:1004BE003400F583E0FE74862FF582E43400F58374
:1004CE00EEF090004DE004F080D3E490004DF090FB
:1004DE00004DE0C3940840030200ECE0FF2420F539
:1004EE0082E43400F583E0FE74862FF582E4340056
:1004FE00F583EEF090004DE004F080D390007AE0AA
:10050E007004A3E0640260030207C4900092E0FE50
:10051E00A3E0FFEE60030200ECEF14602E147003F4
:10052E0002063B14700302066A1470030207A62427
:10053E000460030200EC900096E064396003020050
:10054E00EC90007AF0A304F00207BB90004EE0FEA0
:10055E00A3E0FF12191390004EEEF0A3EFF0E4901B
:10056E00004DF090004DE0FF2428F582E43400F5B4
:10057E0083E0FE74862FF582E43400F583EEF0906E
:10058E00004DE004F0E0B408DA90004EE0FEA3E087
:10059E00FFEE7049EF14601714601E14602514608E
:1005AE002C2404703890008D7444F0E4FF80269063
:1005BE00008D7479F07F01801C90008D745DF07F4A
:1005CE0002801290008D74C5F07F03800890008D1C
:1005DE00749DF07F04121CC090004BEFF090004B06
:1005EE00E075F06484600C243AF582E43400F583FF
:1005FE00E08001E4900087F090004BE075F0648499
:10060E00AFF0EF75F00A84243AF582E43400F583F6
:10061E00E0900088F0EF75F00A84743A25F0F582C8
:10062E00E43400F583E0900089F00200EC7F0A12BA
:10063E001CC0900052E4F0A3EFF07F0B121CC09090
:10064E000054E4F0A3EFF0900096E06439600302EA
:10065E0000EC90007AF0A304F00207BB90004AE091
:10066E006401600302073390008604F0A3F0A3F048
:10067E00E4A3F0A374F1F0A374F5F0A3749DF0E479
:10068E00A3F0900096E024C860281460101460084F
:10069E0014705990004480089000458003900046E5
:1006AE00E02401FFE433FE7C007D031212EAEDF03C
:1006BE00803A900047E0FF900044E0B5072E90008E
:1006CE0048E0FF900045E0B50722900049E0FF901A
:1006DE000046E0B50716E490004AF0900092F0A3B1
:1006EE007403F090007AE4F0A37402F0900044E0FA
:1006FE00243AF582E43400F583E0900086F0900011
:10070E0045E0243AF582E43400F583E0900087F06A
:10071E00900046E0243AF582E43400F583E0900040
:10072E0088F00200EC90004AE060030200EC9000BA
:10073E0050E0FEA3E0FF1217B5900050EEF0A3EFCD
:10074E00F0EE60030200ECEF146018146027240230
:10075E0060030200ECE4900086F0A37421F0A37411
:10076E002C800CE4900086F0A374B8F0A3742DF0E6
:10077E00A374258010E4900086F0A374F1F0A374A6
:10078E0044F0A3746DF0A374F1F0A374F5F0A374A8
:10079E0001F0E4A3F00200EC121EFE900096E0645D
:1007AE003960030200EC90007AF0A304F0900096FA
:1007BE0074FFF00200EC90007AE07004A3E0640392
:1007CE006003020BFF900092E0FEA3E0FFEE6003D9
:1007DE000200ECEF24FD70030208D1240260030234
:1007EE0000EC900096E0B4391A90007AE4F0A3740D
:1007FE0002F074FF90004EF0A3F0900096F0C292BB
:10080E0075A002121EFEE490004DF090004DE0FF28
:10081E002428F582E43400F583E0FE74862FF582F9
:10082E00E43400F583EEF090004DE004F0E0B408FF
:10083E00DA90004EE0FEA3E0FFEE702BEF14601195
:10084E001460121460131460142404701AE4FF80F0
:10085E000E7F01800A7F0280067F0380027F0412D2
:10086E001CC090004BEFF090004BE075F06484607C
:10087E000C243AF582E43400F583E08001E4900024
:10088E0087F090004BE075F06484AFF0EF75F00ADE
:10089E0084243AF582E43400F583E0900088F0EF8A
:1008AE0075F00A84743A25F0F582E43400F583E09D
:1008BE00900089F0A37421F0A3742CF0A37425F09A
:1008CE000200EC9000B9E07002A3E060030209D5CB
:1008DE0090004EE0FEA3E0FF12191390004EEEF0D2
:1008EE00A3EFF090008AE0B4F50F900078E0FFA33C
:1008FE00E090004ECFF0A3EFF0E490004DF09000AA
:10090E004DE0FF2428F582E43400F583E0FE748682
:10091E002FF582E43400F583EEF090004DE004F004
:10092E00E0B408DA90004EE0FEA3E0FFEE7049EF6F
:10093E0014601714601E14602514602C2404703883
:10094E0090008D7444F0E4FF802690008D7479F051
:10095E007F01801C90008D745DF07F0280129000EC
:10096E008D74C5F07F03800890008D749DF07F0418
:10097E00121CC090004BEFF090004BE075F06484B9
:10098E00600C243AF582E43400F583E08001E490B3
:10099E000087F090004BE075F06484AFF0EF75F0D7
:1009AE000A84243AF582E43400F583E0900088F05E
:1009BE00EF75F00A84743A25F0F582E43400F5837D
:1009CE00E0900089020BF79000B9E07004A3E06498
:1009DE00016003020ACB900050E0FEA3E0FF121765
:1009EE00B5900050EEF0A3EFF0EE60030200ECEFD6
:1009FE001460680460030200EC7F0A121CC09000B1
:100A0E004BEFF0E4900086F0A3F07F0A121CC0EFCB
:100A1E0075F06484E5F075F00A84243AF582E434C6
:100A2E0000F583E0900088F07F0A121CC0EF75F08D
:100A3E006484E5F075F00A84743A25F0F582E434A6
:100A4E0000F583E0900089F0A374F1F0A374F5F043
:100A5E00A37401F0A374ADF00200EC7F0B121CC066
:100A6E0090004BEFF0E4900086F0A3F07F0B121C89
:100A7E00C0EF75F06484E5F075F00A84243AF582CF
:100A8E00E43400F583E0900088F07F0B121CC0EF79
:100A9E0075F06484E5F075F00A84743A25F0F582F9
:100AAE00E43400F583E0900089F0A374F1F0A374B0
:100ABE00F5F0A37401F0A374B1F00200EC9000966F
:100ACE00E0B43A179000BBE0FCA3E0FDA3E0FEA368
:100ADE00E0FFE4FBFA7980783F801C900096E0B44A
:100AEE003B209000BBE0FCA3E0FDA3E0FEA3E0FFF3
:100AFE00E4FBFA798078BF120E029000BB121383CA
:100B0E00803C900096E0B4391190007AE4F0A37422
:100B1E0002F090009674FFF080247F967E00121EE5
:100B2E00EB9000BBE0FCA3E0FDA3E0FEA3E0FF1210
:100B3E0011617D0C121DA77F967E00121EEBE490B4
:100B4E000086F0FFFE7D207C419000BBE0F8A3E024
:100B5E00F9A3E0FAA3E0FB120EF31211617C007D03
:100B6E006412133F743A2FF58274003EF583E090C1
:100B7E000087F0E4FFFE7D207C419000BBE0F8A3EF
:100B8E00E0F9A3E0FAA3E0FB120EF3E4FBFA7920FE
:100B9E007841120FFC1211617C007D0A12133F7412
:100BAE00302DF58274003CF583E0900088F0E4FF70
:100BBE00FE7D207C419000BBE0F8A3E0F9A3E0FAB3
:100BCE00A3E0FB120EF31211617C007D0A12133F9B
:100BDE00743A2DF58274003CF583E0900089F0A301
:100BEE0074F5F0A37401F0E4A3F0A374F1F0020025
:100BFE00EC9000B9E07002A3E06003020CF69000E6
:100C0E0096E0FF643A705090004BE0FEC3940050A3
:100C1E0003020DBBEE94644003020DBBE004F0E052
:100C2E0075F06484600C243AF582E43400F583E0B8
:100C3E008001E4900087F090004BE075F06484AE84
:100C4E00F0EE75F00A84243AF582E43400F583E080
:100C5E00900088F0EE8054EF643B706690004BE09D
:100C6E00FFD394005003020DBBEFD39464400302F4
:100C7E000DBBE014F0E075F06484600C243AF5824C
:100C8E00E43400F583E08001E4900087F090004B9F
:100C9E00E075F06484AFF0EF75F00A84243AF582C3
:100CAE00E43400F583E0900088F0EF75F00A847468
:100CBE003A25F0F582E43400F583E0900089F002E5
:100CCE000DBB900096E0B43903020D8890008AE0C7
:100CDE0064F56003020DBB90004BE0FF900078A31B
:100CEE00E0FD121DA7020DAC9000B9E07004A3E068
:100CFE0064016003020DBB900087F0900096E064E3
:100D0E003A703490004BE0FFC394145003020DBBB5
:100D1E00EF94284003020DBB7F0B121CC090004BBA
:100D2E00E0FEC39F400990008DE0B4AD0280359087
:100D3E00004BE004F08076900096E0643B703490B7
:100D4E00004BE0FFD394144064EFD39428505E7FA1
:100D5E000A121CC090004BE0FED39F500E90008DE7
:100D6E00E0B4B10790004BEEF0804290004BE014DF
:100D7E00F0803A900096E0B43902802290008AE02A
:100D8E0064F57029900097E07002A3E090004B701C
:100D9E0006E0FF7D0A8004E0FF7D0B121DA7900088
:100DAE007AE4F0A37403F090009674FFF090004B79
:100DBE00E075F06484AFF0EF75F00A84243AF582A2
:100DCE00E43400F583E0900088F0EF75F00A847447
:100DDE003A25F0F582E43400F583E0900089F0A323
:0D0DEE0074F5F0A37401F0E4A3F00200EC32
:03000B00021D379C
:101D3700C0E0C083C082C0D0758CEE758A00900069
:101D470095E004F07006900094E004F0C3900095CD
:101D5700E09464900094E0648094804004E4F0A3ED
:0A1D6700F0D0D0D082D083D0E0325B
:101EFE00758901758CEEE4F58AD2A9D28CC29275E1
:031F0E00A002220C
:101B63004400AD000000004400B140000000440008
:051B7300B500000000B8
:08160000900056EEF0A3EFF09C
:10160800E4FFFE7D807C3F900064E0F8A3E0F9A34E
:10161800E0FAA3E0FB120E02900068E0F8A3E0F9FC
:10162800A3E0FAA3E0FB120E02900060E0F8A3E04A
:10163800F9A3E0FAA3E0FB120EF390006C121383F7
:10164800E4FFFEFD7C40900068E0F8A3E0F9A3E029
:10165800FAA3E0FB120EF3E4FBFA7980783F120E4E
:1016680002C004C005C006C007900060E0FCA3E00B
:10167800FDA3E0FEA3E0FF121112D003D002D001B7
:10168800D000120EF3900070121383900068E0FCF3
:10169800A3E0FDA3E0FEA3E0FF900060E0F8A3E074
:1016A800F9A3E0FAA3E0FB120EF39000741213837F
:1016B8009000B1E0FCA3E0FDA3E0FEA3E0FF9000F2
:1016C800AD1213839000B5E0FCA3E0FDA3E0FEA3F8
:1016D800E0FF9000B112138390005CE0F8A3E0F9FA
:1016E800A3E0FAA3E0FB900058E0FCA3E0FDA3E030
:1016F800FEA3E0FF120DFE9000B51213839000B117
:10170800E0FCA3E0FDA3E0FEA3E0FF900070E0F89A
:10171800A3E0F9A3E0FAA3E0FB120EF3C004C005AE
:10172800C006C0079000B5E0FCA3E0FDA3E0FEA35F
:10173800E0FF90006CE0F8A3E0F9A3E0FAA3E0FB77
:10174800120EF3D003D002D001D000120E02C00452
:10175800C005C006C0079000ADE0FCA3E0FDA3E013
:10176800FEA3E0FF900074E0F8A3E0F9A3E0FAA379
:10177800E0FB120EF3D003D002D001D000120E020B
:10178800121161900057E02FF0900056E03EF0D320
:10179800A3E09464900056E0648094804006E4F0EE
:0C17A800A37464F0900056E0FEA3E0FF84
:0117B4002212
:100DFB000211CDE86480F8E933E83360110460F048
:100E0B00ED33EC337009E8FCE9FDEAFEEBFF22045D
:100E1B0060DED3EB9FEA9EE99DE8C2E78CF0C2F758
:100E2B0095F0400CE8CCF8E9CDF9EACEFAEBCFFB24
:100E3B0012119885D0F05804700320D5B3E80470D4
:100E4B00075002B2D50211D792D5EC0460F7E4CC6F
:100E5B00C0E0C398F8603B94186008400DD0E0FBED
:100E6B000211AFE4FBFAC9FC8028E830E406E4C9C0
:100E7B00FBE4CAFCE830E305E4C9CACBFCE8540741
:100E8B006010F8C3E913F9EA13FAEB13FBEC13FC4C
:100E9B00D8F130F52FC3E49CFCEF9BFFEE9AFEEDEF
:100EAB0099FDD0E0FBEF4E4D4C701222DB0302118B
:100EBB00D4EC2CFCEF33FFEE33FEED33FDED30E7DE
:100ECB00EB0211AFEF2BFFEE3AFEED39FDD0E0FB5D
:100EDB0050130BBB00030211D7ED13FDEE13FEEF06
:080EEB0013FFEC13FC0211AF30
:100EF300EC4D6011E8497017ED33EC3304600DE4F9
:100F0300FCFFFEFD22E933E8330470F80211CD1231
:100F1300119858046009E4CC248150062850090232
:100F230011D72840030211D4C0E0EB4A7044B980C2
:100F330006D0E0FB0211C3EF4E701CBD8008EBFF2F
:100F4300EAFEE9FD80EBE98DF0A4FEE5F0020FDC9B
:100F5300E9CDF9EAFEEBFFEF89F0A4FCE5F0CE89D9
:100F6300F0A42EFFE435F0CD89F0A42DFEE435F096
:100F73008067EF4E7005BD80D780C3EF8BF0A4ACC4
:100F8300F0EE8BF0A42CFCE435F0F8EF8AF0A42CFF
:100F9300E5F038FCE433CB8DF0A42CFCE5F03BF812
:100FA300EE8AF0A42CFCE5F038F8E433CF89F0A402
:100FB3002CFCE5F038CF3400CE89F0A42FFFE5F008
:100FC3003EFEE433C98DF0A42EFEE5F039CD8AF060
:100FD300A42FFFE5F03EFEE43DFD33D0E0FB5007D8
:100FE3000BBB000F0211D7EC2CFCEF33FFEE33FEEB
:060FF300ED33FD0211AF19
:100FF9000211D7EC5D046005E8590470030211CDB4
:10100900121198580460F6EC4860F2EC7004FDFE89
:10101900FF22C860DB2481C85009C39860025006CA
:101029000211D49850CAF582E9294B4A7005AB825E
:101039000211C375F0007C1A7880C3EF9BEE9AED1C
:1010490099400DC3EF9BFFEE9AFEED99FDE842F042
:10105900DC23ACF0D0E0FFD0E0FED0E0FDAB822095
:10106900E7101BEB60BAEC2CFCEF33FFEE33FEED1F
:1010790033FD0211AFE803F830E705C0F075F00061
:10108900EF2FFFEE33FEED33FD40B830E7C280AA03
:1010990074F8CC6480CCC86480C8F58204604FC3FE
:1010A900EB9FF5F0EA9E42F0E99D42F0E89C45F09D
:1010B900603C501DE5825FFFE582D313CB5BCBF427
:1010C9002B5582FB50280ABA002409B90020088050
:1010D9001DE5825BFBE582D313CF5FCFF4C3132FEA
:1010E9005582FF50090EBE00050DBD00010CC3EB72
:1010F9009FF5F0EA9E42F0E99D42F0E89C45F060D8
:0911090007CC4820E701B3EC22F9
:10111200ED33EC33600A047003BD8004ECB2E7FCEB
:0111220022AA
:1011230075F020800E75F010800575F0087D007E47
:10113300007F003392D530D503121375EC33401082
:10114300EF33FFEE33FEED33FDEC33FCD5F0ED2250
:0E115300E5F0247EA2D513CC92E7CDCEFF228C
:10116100EDD2E7CD33EC3392D524814006E4FFFE86
:10117100FDFC22FCE4CFCECDCC24E0501174FF80E5
:10118100EDC3CC13CCCD13CDCE13CECF13CF047082
:07119100F030D5DE021375FA
:10119800E9D2E7C933E833F892D5EDD2E7CD33EC9D
:0711A80033FC5002B2D52216
:1011AF00EC30E7100FBF000C0EBE00080DBD0004A1
:1011BF000BEB6014A2D5EB13FCED92E7FD2274FF4D
:1011CF00FCFDFEFF22E480F8A2D574FF13FC7D80A6
:0311DF00E480EFBA
:1019EE0002000EE493A3F8E493A34003F68001F201
:1019FE0008DFF48029E493A3F85407240CC8C333FA
:101A0E00C4540F4420C8834004F456800146F6DFC8
:101A1E00E4800B0102040810204080901AF4E47E4A
:101A2E00019360BCA3FF543F30E509541FFEE493BD
:101A3E00A360010ECF54C025E060A840B8E493A384
:101A4E00FAE493A3F8E493A3C8C582C8CAC583CAAF
:101A5E00F0A3C8C582C8CAC583CADFE9DEE780BE67
:011B7800006C
:1011E200E709F608DFFA8046E709F208DFFA803EEF
:1011F20088828C83E709F0A3DFFA8032E309F608DC
:10120200DFFA8078E309F208DFFA807088828C8343
:10121200E309F0A3DFFA806489828A83E0A3F608F7
:10122200DFFA805889828A83E0A3F208DFFA804CD1
:1012320080D280FA80C680D4806980F280338010A8
:1012420080A680EA809A80A880DA80E280CA803311
:1012520089828A83ECFAE493A3C8C582C8CCC58389
:10126200CCF0A3C8C582C8CCC583CCDFE9DEE78059
:101272000D89828A83E493A3F608DFF9ECFAA9F0D8
:10128200EDFB2289828A83ECFAE0A3C8C582C8CC2E
:10129200C583CCF0A3C8C582C8CCC583CCDFEADE47
:1012A200E880DB89828A83E493A3F208DFF980CCA9
:1012B20088F0EF60010E4E60C388F0ED2402B404A2
:1012C2000050B9F582EB2402B4040050AF23234549
:0612D2008223901232732A
:1012D800EF8DF0A4A8F0CF8CF0A428CE8DF0A42E2A
:0212E800FE22E4
:1012EA00BC000BBE0029EF8DF084FFADF022E4CCE8
:1012FA00F875F008EF2FFFEE33FEEC33FCEE9DECB1
:10130A00984005FCEE9DFE0FD5F0E9E4CEFD22EDF6
:10131A00F8F5F0EE8420D21CFEADF075F008EF2F40
:10132A00FFED33FD4007985006D5F0F222C398FD31
:05133A000FD5F0EA22CE
:10133F00C2D5EC30E709B2D5E4C39DFDE49CFCEEC9
:10134F0030E715B2D5E4C39FFFE49EFE1212EAC345
:10135F00E49DFDE49CFC80031212EA30D507C3E440
:06136F009FFFE49EFE2238
:0E137500C3E49FFFE49EFEE49DFDE49CFC2289
:0C138300ECF0A3EDF0A3EEF0A3EFF022DD
:10138F00A8828583F0D083D0821213A61213A612DF
:10139F0013A61213A6E473E493A3C583C5F0C58304
:1013AF00C8C582C8F0A3C583C5F0C583C8C582C8A8
:0113BF00220B
:0C1F2E00EE30E707C3E49FFFE49EFE22B4
:00000001FF
