:0300000002195B87
:0C195B00787FE4F6D8FD7581070219A220
:101DBB00FC44795DC59DBD54FDDDFE467B5FC79F31
:041DCB00BF56FFDF21
:071A4E004400A700000000A6
:101D1400121E057FCC121DA27F4E121DA27F20121F
:0F1D24001DA2E4FF121DA27F7F121DA2021E0549
:0C1E0500C2937FF0DFFED2937FF0DFFE7F
:011E110022AE
:101DA2007E08C2937D02DDFEEF1392937D1EDDFE5F
:081DB200D293EFC313FFDEEA38
:011DBA002206
:101CF2007E08EFC313FFC2937D02DDFED2937D0403
:101D0200DDFE309304EF4480FF7D1EDDFED293DEC4
:011D1200E1EF
:011D130022AD
:1012C900785E7C007D017BFF7A1D79BB7E007F0AF9
:1012D9001211BB78687C007D017BFF7A1D79C57E80
:1012E900007F0A1211BB90007212129800000000D0
:1012F900121E057FCC121DA27F44121DA2121E05CB
:101309007FCC121DA27FBE121DA2E4FC121CF27436
:10131900582CF582E43400F583EFF00CECB402ECC0
:10132900121E05900059E054F064F0701D900058A9
:10133900E0FF700BEFF404F0A3E0F404F0800B90ED
:101349000058E0F404F0A3E0F4F0900059E0C4542C
:10135900F0FD900058E0FFC4540F4D75F06484AE61
:10136900F0EE75F00A8490005AF0EE75F00A84A345
:10137900E5F0F0EF540F900058F0FF7E007C027DFD
:10138900711211E1AB07AA060C7DE81211F3900066
:101399005CEFF0AE02AF037C037DE81211F37E002F
:1013A9007F64CFCDCFCECCCE1211F3A3EFF0900056
:1013B9005AE0FCE4121036E4FBFA79207841120E67
:1013C90019C004C005C006C00790005BE0FCE41228
:1013D9001036D003D002D001D000120D28C004C0AD
:1013E90005C006C00790005CE0FCE41210367BCD16
:1013F9007ACC79CC783D120E19D003D002D001D025
:1014090000120D28C004C005C006C00790005DE0A9
:10141900FCE41210367B0A7AD77923783C120E192C
:10142900D003D002D001D000120D28900072121200
:101439008CE4FFFE7DAA7C42900072E0F8A3E0F9FB
:10144900A3E0FAA3E0FB120FBF7005FFFEFDFC222B
:10145900E4FFFEFDFC9000A7E0F8A3E0F9A3E0FAA1
:10146900A3E0FB120FBF7014900072E0FCA3E0FD33
:10147900A3E0FEA3E0FF9000A712128C9000A7E062
:10148900F8A3E0F9A3E0FAA3E0FB900072E0FCA363
:10149900E0FDA3E0FEA3E0FF120D2412106A121E64
:1014A90012C3EF9401EE64809480506B90008874AD
:1014B900D1F0A374B8F0E4A3F0A3F090005AE024AB
:1014C9005EF582E43400F583E090008CF090005BD7
:1014D900E02468F582E43400F583E090008DF09013
:1014E900005CE0245EF582E43400F583E090008E30
:1014F900F090005DE0245EF582E43400F583E0902D
:10150900008FF0900072E0FCA3E0FDA3E0FEA3E0F1
:10151900FF9000A712128C9000A7E0FCA3E0FDA3A6
:05152900E0FEA3E0FF5D
:01152E00229A
:051E2F00D290D29122C7
:101D5100D2907F057E00121DCFD2917F057E0012A9
:0B1D61001DCFC2907F057E00021DCF49
:101D6C00C2907F057E00121DCFD2917F057E00129E
:0B1D7C001DCFD2907F057E00021DCF1E
:101CCF00D2917F057E00121DCF30900E90005AE00A
:101CDF00C394C85005E004F080EFC2917F057E00E9
:031CEF00021DCF04
:101D8700D2907F057E00121DCFD2917F057E001273
:0B1D97001DCFC2917F057E00021DCF12
:051AB10090005AEFF067
:101AB600C291E4A3F090005AE0FF30E704D2908090
:101AC60002C290EF25E090005AF07F057E00121DBD
:101AD600CFD2917F057E00121DCFC2917F057E0079
:101AE600121DCF90005BE004F0E0C3940840C6D21C
:081AF600907F057E00021DCF68
:101B4800C2917F057E00121DCFD2907F057E0012C4
:101B58001DCFE490005AF0D2917F057E00121DCF70
:101B680090005BE025E0F0309003E004F0C2917F44
:101B7800057E00121DCF90005AE004F0E0C39408DF
:071B880040D590005BE0FF77
:011B8F002233
:101C7700900058EFF0A3EDF0121E2F121D517FA018
:101C8700121AB1121CCF900059E0FF121AB1121CA0
:0F1C9700CF900058E0FF121AB1121CCF021D6C43
:051B9000900058EFF089
:101B9500121E2F121D517FA0121AB1121CCF9000D8
:101BA50058E0FF121AB1121CCF121D517FA1121A53
:101BB500B1121CCF121B48900059EFF0121D87126D
:071BC5001D6C900059E0FFC8
:011BCC0022F6
:1018AC007F967E00121DCFE4FD7F0A121C777F9677
:1018BC007E00121DCF7D017F14121C777F967E0057
:1018CC00121DCF7D027F1E121C777F967E00121D8B
:1018DC00CF7D037F28121C777F967E00121DCF7D53
:1018EC00047F32121C777F967E00121DCF7D057F00
:1018FC003C121C777F967E00121DCF7D067F461210
:10190C001C777F967E00121DCF7D077F50121C77AF
:10191C007F967E00121DCF7D087F5A121C777F9612
:10192C007E00121DCF7D097F64121C777F967E008E
:10193C00121DCF7D0A7F17121C777F967E00121D19
:0F194C00CF7D0B7F20121C777F967E00021DCF70
:07000300E4FF0FEFB430FB36
:01000A0022D3
:071E2700E4FF0FEFB408FB1C
:011E2E002291
:101D3300D3EF9400EE940040147D6E7C00ED1D7093
:0D1D4300011CED4C70F7EF1F70E61E80E3F1
:011D50002270
:101DCF00E4FDFCC3ED9FEC9E5008000DBD00010C1F
:021DDF0080F191
:011DE10022DF
:101A55004A009DFC44795DC59DBD54FDDD42009B5A
:021A650000007F
:051E34007FA4021BCD9C
:051BCD00900063EFF041
:101BD200C294120003E4900064F0900063E030E7E6
:101BE20004D2978002C297D295121E27C295121E66
:101BF20027900063E025E0F0A3E004F0E0C394083E
:041C020040D8C2976D
:011C060022BB
:101C4100D297120003E4900061F0D295121E279002
:101C51000062E025E0F0309704E04401F0C2951203
:101C61001E27900061E004F0E0C3940840DCC297B5
:051C7100900062E0FF9D
:011C7600224B
:081E1E007F15121BCD121C41BF
:011E26002299
:101CA600E4900061F0900061E0FE2490FF74882EBD
:101CB600F582E43400F583E0FD121DF5900061E045
:081CC60004F0E0C3940840DDC6
:011CCE0022F3
:101DF500900062EDF0121BCD900062E0FF021BCD5A
:1019E700900098E024C8604F146043146025147079
:1019F70055900095E004F07006900094E004F09094
:101A07000094E0FEA3E0FF7C007D051212489000E1
:101A1700948015900095E02404FF900094E0340032
:101A2700FE7C007D05121248ECF0A3EDF022900039
:101A370078E4F0A304F022900078E4F0A37402F0B5
:071A470090009874FFF022EB
:1017E100900058EEF0A3EFF0900098E024C8607CE0
:1017F1001460471460281460030218A3900059E094
:1018010004F07006900058E004F0900058E0FEA348
:10181100E0FF7C007D051212489000588015900071
:1018210059E02404FF900058E03400FE7C007D055F
:10183100121248ECF0A3EDF08068900058E0FEA38E
:10184100E0FFF47002EEF46020900079E024FFF0F4
:10185100900078E034FFF090009874FFF0900076EB
:10186100EEF0A3EFF074FF8033E48030900058E095
:10187100FEA3E0FFF47002EEF46020900079E00432
:10188100F07006900078E004F090009874FFF090FA
:101891000076EEF0A3EFF074FF8001E4900058F0C1
:0B18A100A3F0900058E0FEA3E0FF223F
:1016EE00900058EEF0A3EFF0900098E024C870033D
:1016FE0002177E1460481460281460030217D890F5
:10170E000059E004F07006900058E004F090005884
:10171E00E0FEA3E0FF7C007D03121248900058808B
:10172E0015900059E02401FF900058E03400FE7C33
:10173E00007D03121248ECF0A3EDF00217D89000D2
:10174E0058E0FEA3E0FFF47002EEF4602090007902
:10175E00E024FFF0900078E034FFF090009874FFE2
:10176E00F0900099EEF0A3EFF074FF8057E48054F0
:10177E00900058E0FEA3E0FFF47002EEF460449097
:10178E000078E07004A3E064027011EF4E90009BAD
:10179E007005F0A3F08005E4F0A304F0900079E06A
:1017AE0004F07006900078E004F090009874FFF05A
:1017BE00900058E0FFA3E0900099CFF0A3EFF074F3
:1017CE00FF8001E4900058F0A3F0900058E0FEA3D3
:0317DE00E0FF2207
:08152F00900058EEF0A3EFF06C
:10153700E490005BF0A3F0A3F0A3F0A3F0A3F07F87
:101547000AFE121D33121E1E90005AEFF0BFFF1441
:1015570090009874FFF0E490005BF0A3F0A3F0A371
:10156700F00216E5900098E0FFB43B047E0180028C
:101577007E00EFB43A047F0180027F00EF4E7003D4
:101587000216DD90005AE0F470030216DD7FC87E74
:1015970000121D33900098E0F9643A705B90005C8C
:1015A700E004F0700690005BE004F090005BE070F0
:1015B70004A3E06405701490005BF0A3F090005E54
:1015C700E004F0700690005DE004F090005FE0FC3E
:1015D700A3E0FD90005DE0FEA3E0FF1211E19000A3
:1015E7005BE0FCA3E0FD900059E02DFD900058E082
:1015F7003CCD2FFFED3E8060E9643B705F90005C5F
:10160700E004F0700690005BE004F090005BE0708F
:1016170004A3E06405701490005BF0A3F090005EF3
:10162700E004F0700690005DE004F090005FE0FCDD
:10163700A3E0FD90005DE0FEA3E0FF1211E1900042
:101647005BE0FCA3E0FDC3900059E09DFD900058CE
:10165700E09CCDC39FFFED9EF0A3EFF0900058E014
:10166700FEA3E0FF7C007D64121248EF4E600D740C
:101677009D2FF58274003EF583E08001E490008998
:10168700F0900058E0FEA3E0FF7C007D6412124852
:10169700AA04AB057D0A7C00AF03AE0212124874A0
:1016A7009D2FF58274003EF583E090008AF07D0A55
:1016B7007C00AF03AE02121248749D2DF5827400B0
:1016C7003CF583E090008BF0121CA6121E1E9000C2
:1016D7005AEFF002156B90005AE0900098F09000D6
:0616E70058E0FEA3E0FF45
:0116ED0022DA
:101AFE00A9F1010044000000212C2501790000000D
:101B0E00B82D25015D000000F1F50100C5000000B3
:101B1E00F1446D019D000000000000002101000055
:101B2E00FE467B5FC79FBF56FFDFFC44795DC59DB8
:0A1B3E00BD54FDDD000000010202AD
:101A670042009400004200780001420096000042C4
:101A7700007600004200990000410098FF48008866
:101A8700A9F101004400000044007A41E00000444D
:101A97000090408000004400823E4CCCCD44007E44
:091AA7000000000042008600323C
:10000E0078007C007D017BFF7A1A79FE7E007F08E6
:10001E001211BB78087C007D017BFF7A1B79067E6E
:10002E00007F081211BB78107C007D017BFF7A1BCC
:10003E00790E7E007F081211BB78187C007D017B43
:10004E00FF7A1B79167E007F081211BB78207C0088
:10005E007D017BFF7A1B791E7E007F081211BB7813
:10006E00287C007D017BFF7A1B79267E007F08129B
:10007E0011BB78307C007D017BFF7A1B792E7E00D0
:10008E007F0A1211BB783A7C007D017BFF7A1B79C7
:10009E00387E007F0A1211BB78447C007D017BFF05
:1000AE007A1B79427E007F031211BB78477C007D5C
:1000BE00017BFF7A1B79457E007F031211BB9000F6
:1000CE004A7401F074FF90004EF0A3F0A3F0A3F079
:1000DE00121E34121E2F121D14C2921218AC121CB4
:1000EE00A6121E1E90004CEFF0900078E07004A354
:1000FE00E064027012900094E07002A3E07008C2F7
:10010E00AF1212C9020438900078E07004A3E064C4
:10011E00026003020289900094E07004A3E064027E
:10012E006003020289D2AFD2921212C99000A712B6
:10013E00128C900054E0FCA3E0FDE412103190000C
:10014E00A7E0F8A3E0F9A3E0FAA3E0FB120FBF606B
:10015E0002500302024D900056E0FCA3E0FDE412B3
:10016E0010319000A7E0F8A3E0F9A3E0FAA3E0FBBA
:10017E00120FBF400302024D900054E0FCA3E0FDBD
:10018E00E4121031A804A905AA06AB079000A7E057
:10019E00FCA3E0FDA3E0FEA3E0FF120D24C004C00B
:1001AE0005C006C007900054E0FEA3E0FFC3900018
:1001BE0057E09FFD900056E09EFCE4121031A8041B
:1001CE00A905AA06AB07D007D006D005D004120F9A
:1001DE0022E4FBFA79487842120E19E4FBFA7948C8
:1001EE007842120D2812106A900052EEF0A3EFF032
:1001FE00E4900089F0900052E0FEA3E0FF7C007DC9
:10020E00641211F3AA04AB057D0A7C00AF03AE02A3
:10021E001211F3743A2FF58274003EF583E09000CC
:10022E008AF07D0A7C00AF03AE021211F3743A2DF0
:10023E00F58274003CF583E090008BF00203F89099
:10024E000056E0FCA3E0FDE41210319000A7E0F8A8
:10025E00A3E0F9A3E0FAA3E0FB120FBF400F90005A
:10026E00897444F0A374FCF0A3F00203F8E4900048
:10027E0089F0A3F0A374FCF00203F8900078E0700C
:10028E0004A3E0640260030203FF900094E0700494
:10029E00A3E0640460030203FFD2AFD2921212C92C
:1002AE009000A712128C900054E0FCA3E0FDE41223
:1002BE0010319000A7E0F8A3E0F9A3E0FAA3E0FB69
:1002CE00120FBF600250030203C0900056E0FCA361
:1002DE00E0FDE41210319000A7E0F8A3E0F9A3E0EE
:1002EE00FAA3E0FB120FBF40030203C0900054E0DC
:1002FE00FCA3E0FDE4121031A804A905AA06AB0781
:10030E009000A7E0FCA3E0FDA3E0FEA3E0FF120D2A
:10031E0024C004C005C006C007900054E0FEA3E050
:10032E00FFC3900057E09FFD900056E09EFCE41244
:10033E001031A804A905AA06AB07D007D006D00530
:10034E00D004120F22E4FBFA79487842120E19E417
:10035E00FBFA79487842120D2812106A900052EE7C
:10036E00F0A3EFF0E4900089F0900052E0FEA3E0DD
:10037E00FF7C007D641211F3AA04AB057D0A7C009C
:10038E00AF03AE021211F3743A2FF58274003EF5EC
:10039E0083E090008AF07D0A7C00AF03AE0212115A
:1003AE00F3743A2DF58274003CF583E090008BF0E7
:1003BE008038900056E0FCA3E0FDE412103190006E
:1003CE00A7E0F8A3E0F9A3E0FAA3E0FB120FBF4009
:1003DE000E9000897444F0A374FCF0A3F0800BE43B
:1003EE00900089F0A3F0A374FCF0E4900088F080F4
:1003FE0039900078E07004A3E06403702D900094AF
:10040E00E07004A3E064017021D2AF90004BE0FFD6
:10041E00C3900097E09F900096E094005007D29210
:10042E00E4F5A08005C29275A00290004CE0FFB4E6
:10043E00FF0302081E900098E0F460030200ECEF48
:10044E00F0900078E07004A3E0640160030205837D
:10045E001219E7900094E0FEA3E0FFEE60030200A5
:10046E00ECEF14604814607714700302051F1470CB
:10047E0003020551240460030200ECE490004DF0E9
:10048E0090004DE0C3940840030200ECE0FF24000E
:10049E00F582E43400F583E0FE74882FF582E434AF
:1004AE0000F583EEF090004DE004F080D3E4900070
:1004BE004DF090004DE0C3940840030200ECE0FFC5
:1004CE002408F582E43400F583E0FE74882FF5826B
:1004DE00E43400F583EEF090004DE004F080D3E4B8
:1004EE0090004DF090004DE0C3940840030200ECE4
:1004FE00E0FF2410F582E43400F583E0FE74882FCB
:10050E00F582E43400F583EEF090004DE004F080C7
:10051E00D3E490004DF090004DE0C39408400302E8
:10052E0000ECE0FF2418F582E43400F583E0FE745D
:10053E00882FF582E43400F583EEF090004DE00450
:10054E00F080D3E490004DF090004DE0C39408404D
:10055E00030200ECE0FF2420F582E43400F583E092
:10056E00FE74882FF582E43400F583EEF090004D92
:10057E00E004F080D3900078E07004A3E0640260A1
:10058E0003020827900094E0FEA3E0FFEE60030252
:10059E0000ECEF14602E1470030206B41470030204
:1005AE0006E3147003020809240460030200EC90B1
:1005BE000098E0643960030200EC900078F0A30428
:1005CE00F002081E90004EE0FEA3E0FF1217E1902D
:1005DE00004EEEF0A3EFF0E490004DF090004DE0F1
:1005EE00FF2428F582E43400F583E0FE74882FF5AD
:1005FE0082E43400F583EEF090004DE004F0E0B4B8
:10060E0008DA90004EE0FEA3E0FFEE7049EF1460B2
:10061E001714601E14602514602C2404703890008A
:10062E008F7444F0E4FF802690008F7479F07F0180
:10063E00801C90008F745DF07F02801290008F748A
:10064E00C5F07F03800890008F749DF07F04121B0D
:10065E009090004BEFF090004BE075F06484600CCE
:10066E00243AF582E43400F583E08001E4900089B9
:10067E00F090004BE075F06484AFF0EF75F00A84F3
:10068E00243AF582E43400F583E090008AF0EF75A9
:10069E00F00A84743A25F0F582E43400F583E09094
:1006AE00008BF00200EC7F0A121B90900054E4F0D5
:1006BE00A3EFF07F0B121B90900056E4F0A3EFF027
:1006CE00900098E0643960030200EC900078F0A38B
:1006DE0004F002081E90004AE0640160030207ACB9
:1006EE0090008804F0A3F0A3F0E4A3F0A374F1F05B
:1006FE00A374F5F0A3749DF0E4A3F0900098E024A9
:10070E00C86028146010146008147059900044805A
:10071E00089000458003900046E02401FFE433FE7C
:10072E007C007D031211F3EDF0803A900047E0FF5C
:10073E00900044E0B5072E900048E0FF900045E0A1
:10074E00B50722900049E0FF900046E0B50716E499
:10075E0090004AF0900094F0A37403F0900078E4B7
:10076E00F0A37402F0900044E0243AF582E43400E1
:10077E00F583E0900088F0900045E0243AF582E49D
:10078E003400F583E0900089F0900046E0243AF5BD
:10079E0082E43400F583E090008AF00200EC9000D1
:1007AE004AE060030200EC900050E0FEA3E0FF126E
:1007BE0016EE900050EEF0A3EFF0EE60030200ECA8
:1007CE00EF1460140460030200ECE4900088F0A3C0
:1007DE007421F0A3742C800CE4900088F0A374B8FC
:1007EE00F0A3742DF0A37425F0A374F1F0A374F5A7
:1007FE00F0A37401F0E4A3F00200EC121DE29000ED
:10080E0098E0643960030200EC900078F0A304F0E5
:10081E0090009874FFF00200EC900078E07004A352
:10082E00E064036003020B33900094E0FEA3E0FF4C
:10083E00EE60030200ECEF24FD7003020934240283
:10084E0060030200EC900098E0B4391A900078E44E
:10085E00F0A37402F074FF90004EF0A3F090009895
:10086E00F0C29275A002121DE2E490004DF09000CD
:10087E004DE0FF2428F582E43400F583E0FE748811
:10088E002FF582E43400F583EEF090004DE004F095
:10089E00E0B408DA90004EE0FEA3E0FFEE702BEF1E
:1008AE001460111460121460131460142404701A6E
:1008BE00E4FF800E7F01800A7F0280067F038002A4
:1008CE007F04121B9090004BEFF090004BE075F000
:1008DE006484600C243AF582E43400F583E08001F0
:1008EE00E4900089F090004BE075F06484AFF0EF77
:1008FE0075F00A84243AF582E43400F583E0900022
:10090E008AF0EF75F00A84743A25F0F582E434002B
:10091E00F583E090008BF0A37421F0A3742CF0A368
:10092E007425F00200EC90009BE07002A3E06003DF
:10093E00020A3D90004EE0FEA3E0FF1217E1900088
:10094E004EEEF0A3EFF090008CE0B4F50F90007631
:10095E00E0FFA3E090004ECFF0A3EFF0E490004D47
:10096E00F090004DE0FF2428F582E43400F583E09A
:10097E00FE74882FF582E43400F583EEF090004D7E
:10098E00E004F0E0B408DA90004EE0FEA3E0FFEEE3
:10099E007049EF14601714601E14602514602C2427
:1009AE0004703890008F7444F0E4FF802690008F1E
:1009BE007479F07F01801C90008F745DF07F02804F
:1009CE001290008F74C5F07F03800890008F749D85
:1009DE00F07F04121B9090004BEFF090004BE075EF
:1009EE00F06484600C243AF582E43400F583E080F0
:1009FE0001E4900089F090004BE075F06484AFF054
:100A0E00EF75F00A84243AF582E43400F583E09021
:100A1E00008AF0EF75F00A84743A25F0F582E4341A
:100A2E0000F583E090008BF0A374F1F00200EC90DF
:100A3E00009BE07004A3E0640160030200EC9000F0
:100A4E0050E0FEA3E0FF1216EE900050EEF0A3EF82
:100A5E00F0EE60030200ECEF146068046003020025
:100A6E00EC7F0A121B9090004BEFF0E4900088F0A0
:100A7E00A3F07F0A121B90EF75F06484E5F075F019
:100A8E000A84243AF582E43400F583E090008AF07B
:100A9E007F0A121B90EF75F06484E5F075F00A84FE
:100AAE00743A25F0F582E43400F583E090008BF083
:100ABE00A374F1F0A374F5F0A37401F0A374ADF078
:100ACE000200EC7F0B121B9090004BEFF0E49000B5
:100ADE0088F0A3F07F0B121B90EF75F06484E5F0A5
:100AEE0075F00A84243AF582E43400F583E0900030
:100AFE008AF07F0B121B90EF75F06484E5F075F0B1
:100B0E000A84743A25F0F582E43400F583E090000F
:100B1E008BF0A374F1F0A374F5F0A37401F0A37439
:100B2E00B1F00200EC90009BE07002A3E0600302C3
:100B3E000C1C900098E0643A703990004BE0FFC3B3
:100B4E0094005003020CE1EF94644003020CE1E0C8
:100B5E007E0012152F90004BEFF075F06484600C40
:100B6E00243AF582E43400F583E08001E4900089B4
:100B7E00F08040900098E0643B706D90004BE0FF79
:100B8E00D394005003020CE1EFD394644003020CA3
:100B9E00E1E07E0012152F90004BEFF075F06484AB
:100BAE00600C243AF582E43400F583E08001E49091
:100BBE000089F090004BE075F06484AFF0EF75F0B3
:100BCE000A84243AF582E43400F583E090008AF03A
:100BDE00EF75F00A84743A25F0F582E43400F5835B
:100BEE00E090008BF0020CE1900098E0B439030223
:100BFE000CAE90008CE064F56003020CE190004BAB
:100C0E00E0FF900076A3E0FD121C77020CD290005C
:100C1E009BE07004A3E064016003020CE190008984
:100C2E00F0900098E0643A702E90004BE0FFC39471
:100C3E00145003020CE1EF94284003020CE17F0BE9
:100C4E00121B9090004BE0FEC39F403F90008FE040
:100C5E00B4AD02802F8034900098E0643B703A90DF
:100C6E00004BE0FFD39414406AEFD3942850647F76
:100C7E000A121B9090004BE0FED39F500E90008FF7
:100C8E00E0B4B10790004BEEF08048EEFF7E00120C
:100C9E00152F90004BEFF0803A900098E0B4390297
:100CAE00802290008CE064F57029900099E070022B
:100CBE00A3E090004B7006E0FF7D0A8004E0FF7D0C
:100CCE000B121C77900078E4F0A37403F090009858
:100CDE0074FFF090004BE075F06484AFF0EF75F0A8
:100CEE000A84243AF582E43400F583E090008AF019
:100CFE00EF75F00A84743A25F0F582E43400F5833A
:100D0E00E090008BF0A374F5F0A37401F0E4A3F06F
:030D1E000200ECE4
:03000B00021C07CD
:101C0700C0E0C083C082C0D0758CEE758A0090009A
:101C170097E004F07006900096E004F0C3900097F8
:101C2700E09464900096E0648094804004E4F0A31C
:0A1C3700F0D0D0D082D083D0E0328C
:101DE200758901758CEEE4F58AD2A9D28CC29275FE
:031DF200A002222A
:100D21000210D6E86480F8E933E83360110460F01A
:100D3100ED33EC337009E8FCE9FDEAFEEBFF220438
:100D410060DED3EB9FEA9EE99DE8C2E78CF0C2F733
:100D510095F0400CE8CCF8E9CDF9EACEFAEBCFFBFF
:100D61001210A185D0F05804700320D5B3E80470A7
:100D7100075002B2D50210E092D5EC0460F7E4CC42
:100D8100C0E0C398F8603B94186008400DD0E0FBC8
:100D91000210B8E4FBFAC9FC8028E830E406E4C993
:100DA100FBE4CAFCE830E305E4C9CACBFCE854071C
:100DB1006010F8C3E913F9EA13FAEB13FBEC13FC27
:100DC100D8F130F52FC3E49CFCEF9BFFEE9AFEEDCA
:100DD10099FDD0E0FBEF4E4D4C701222DB03021067
:100DE100DDEC2CFCEF33FFEE33FEED33FDED30E7B0
:100DF100EB0210B8EF2BFFEE3AFEED39FDD0E0FB30
:100E010050130BBB00030210E0ED13FDEE13FEEFD8
:080E110013FFEC13FC0210B802
:100E1900EC4D6011E8497017ED33EC3304600DE4D3
:100E2900FCFFFEFD22E933E8330470F80210D61204
:100E390010A158046009E4CC248150062850090205
:100E490010E02840030210DDC0E0EB4A7044B9808D
:100E590006D0E0FB0210CCEF4E701CBD8008EBFF02
:100E6900EAFEE9FD80EBE98DF0A4FEE5F0020F0250
:100E7900E9CDF9EAFEEBFFEF89F0A4FCE5F0CE89B4
:100E8900F0A42EFFE435F0CD89F0A42DFEE435F071
:100E99008067EF4E7005BD80D780C3EF8BF0A4AC9F
:100EA900F0EE8BF0A42CFCE435F0F8EF8AF0A42CDA
:100EB900E5F038FCE433CB8DF0A42CFCE5F03BF8ED
:100EC900EE8AF0A42CFCE5F038F8E433CF89F0A4DD
:100ED9002CFCE5F038CF3400CE89F0A42FFFE5F0E3
:100EE9003EFEE433C98DF0A42EFEE5F039CD8AF03B
:100EF900A42FFFE5F03EFEE43DFD33D0E0FB5007B3
:100F09000BBB000F0210E0EC2CFCEF33FFEE33FEBD
:060F1900ED33FD0210B8EB
:100F1F000210E0EC5D046005E8590470030210D67E
:100F2F001210A1580460F6EC4860F2EC7004FDFE5C
:100F3F00FF22C860DB2481C85009C39860025006A5
:100F4F000210DD9850CAF582E9294B4A7005AB8231
:100F5F000210CC75F0007C1A7880C3EF9BEE9AEDEF
:100F6F0099400DC3EF9BFFEE9AFEED99FDE842F01D
:100F7F00DC23ACF0D0E0FFD0E0FED0E0FDAB822070
:100F8F00E7101BEB60BAEC2CFCEF33FFEE33FEEDFA
:100F9F0033FD0210B8E803F830E705C0F075F00034
:100FAF00EF2FFFEE33FEED33FD40B830E7C280AADE
:100FBF0074F8CC6480CCC86480C8F582046043C3E5
:100FCF00EB9FF5F0EA9E42F0E99D42F0E89C45F078
:100FDF0060305018E5825FFFE582F42B5582FB509D
:100FEF00210ABA001D09B90019088016E5825BFBBA
:100FFF00E582F42F5582FF50090EBE00050DBD008E
:10100F00010CC3EB9FF5F0EA9E42F0E99D42F0E838
:0D101F009C45F06007CC4820E701B3EC22AF
:10102C0075F020800E75F010800575F0087D007E3F
:10103C00007F003392D530D50312127EEC33401072
:10104C00EF33FFEE33FEED33FDEC33FCD5F0ED2248
:0E105C00E5F0247EA2D513CC92E7CDCEFF2284
:10106A00EDD2E7CD33EC3392D524814006E4FFFE7E
:10107A00FDFC22FCE4CFCECDCC24E0501174FF80DD
:10108A00EDC3CC13CCCD13CDCE13CECF13CF04707A
:07109A00F030D5DE02127EEA
:1010A100E9D2E7C933E833F892D5EDD2E7CD33EC95
:0710B10033FC5002B2D5220E
:1010B800EC30E7100FBF000C0EBE00080DBD000499
:1010C8000BEB6014A2D5EB13FCED92E7FD2274FF45
:1010D800FCFDFEFF22E480F8A2D574FF13FC7D809E
:0310E800E480EFB2
:1019670002000EE493A3F8E493A34003F68001F288
:1019770008DFF48029E493A3F85407240CC8C33381
:10198700C4540F4420C8834004F456800146F6DF50
:10199700E4800B0102040810204080901A4EE47E78
:1019A700019360BCA3FF543F30E509541FFEE49345
:1019B700A360010ECF54C025E060A840B8E493A30C
:1019C700FAE493A3F8E493A3C8C582C8CAC583CA37
:1019D700F0A3C8C582C8CAC583CADFE9DEE780BEEF
:011AB0000035
:1010EB00E709F608DFFA8046E709F208DFFA803EE7
:1010FB0088828C83E709F0A3DFFA8032E309F608D4
:10110B00DFFA8078E309F208DFFA807088828C833B
:10111B00E309F0A3DFFA806489828A83E0A3F608EF
:10112B00DFFA805889828A83E0A3F208DFFA804CC9
:10113B0080D280FA80C680D4806980F280338010A0
:10114B0080A680EA809A80A880DA80E280CA803309
:10115B0089828A83ECFAE493A3C8C582C8CCC58381
:10116B00CCF0A3C8C582C8CCC583CCDFE9DEE78051
:10117B000D89828A83E493A3F608DFF9ECFAA9F0D0
:10118B00EDFB2289828A83ECFAE0A3C8C582C8CC26
:10119B00C583CCF0A3C8C582C8CCC583CCDFEADE3F
:1011AB00E880DB89828A83E493A3F208DFF980CCA1
:1011BB0088F0EF60010E4E60C388F0ED2402B4049A
:1011CB000050B9F582EB2402B4040050AF23234541
:0611DB00822390113B731A
:1011E100EF8DF0A4A8F0CF8CF0A428CE8DF0A42E22
:0211F100FE22DC
:1011F300BC000BBE0029EF8DF084FFADF022E4CCE0
:10120300F875F008EF2FFFEE33FEEC33FCEE9DECA8
:10121300984005FCEE9DFE0FD5F0E9E4CEFD22EDEE
:10122300F8F5F0EE8420D21CFEADF075F008EF2F38
:10123300FFED33FD4007985006D5F0F222C398FD29
:051243000FD5F0EA22C6
:10124800C2D5EC30E709B2D5E4C39DFDE49CFCEEC1
:1012580030E715B2D5E4C39FFFE49EFE1211F3C335
:10126800E49DFDE49CFC80031211F330D507C3E430
:061278009FFFE49EFE2230
:0E127E00C3E49FFFE49EFEE49DFDE49CFC2281
:0C128C00ECF0A3EDF0A3EEF0A3EFF022D5
:10129800A8828583F0D083D0821212AF1212AF12C7
:1012A80012AF1212AFE473E493A3C583C5F0C583EC
:1012B800C8C582C8F0A3C583C5F0C583C8C582C8A0
:0112C8002203
:0C1E1200EE30E707C3E49FFFE49EFE22D1
:00000001FF
